:0400000002002132A7
:03000B000200B739
:0100130032BA
:03001B0002011DC2
:10007A007522FF752300752401E4F525F526F52779
:0D008A00F528F529F52AF52BF52C02001EAE
:03001E0002009746
:10009700758911D28CD28E75A88A9003E9E4F09005
:1000A70003EAF09003EB7404F09003ECE4F080FEB5
:1000B700C0E0C0F0C082C083C0D075D008E5247509
:1000C700F01AA42400FE740435F0FFE52B252B2E2F
:1000D700F582E43FF583E493FEA3E493FF8F8C8ED0
:1000E7008AC374808522F063F08095F0500DC37445
:1000F7008C8522F063F08095F050057402B5230BD0
:10010700E5A0F4F5A09003EAE52BF0D0D0D083D09A
:1001170082D0F0D0E032C021C0E0C0F0C082C083FE
:10012700C007C006C005C004C003C002C001C000AC
:10013700C0D075D018758DD8758BF07510057511F1
:1001470000852982852A8375D0001203AF75D018E0
:10015700E5828583F045F0600302026675D00012E0
:10016700034175D018858222C374808522F063F01D
:100177008095F05019C3748C8522F063F08095F058
:10018700400C7402B52302800585222B802E740D46
:10019700B5220B7524009003EB7403F0801E740ED8
:1001A700B5220B7524019003EB7404F0800E740FD5
:1001B700B522097524029003EB7405F07401B52389
:1001C70052E5252401FEE5263400FFC3748085220D
:1001D700F063F08095F05018C374878522F063F0C0
:1001E7008095F092004009E522FC3395E0FD8004FC
:1001F7007C007D008E828F83ECF0E52524F5F58267
:10020700E5263401F583E524F00525E4B5255005F9
:1002170026804C7402B52347E5272401F582E5289B
:100227003400F583E0F52BE52724F5F582E528343E
:1002370001F583E0F524AF240F0F0F9003E9EFF0EA
:100247000527E4B527020528E52524FFFEE5263422
:10025700FFFFEEB52709EFB52805E4F527F528C315
:10026700741E9529E4952A505BE5227050E52370AA
:1002770019F52BF525F5267523019003EC04F0906D
:1002870003EAE4F09003E9F080337401B52319E43D
:10029700F527F5287523029003EC7402F09003EA22
:1002A700E4F09003E9F080157402B523107523007C
:1002B7009003ECE4F09003EAF09003E9F0E4F52909
:1002C700F52A80080529E4B52902052AAE2C7F0006
:1002D700E52C24E9F582E43403F583E0FD8D108FE6
:1002E700118E828F8375D00012031F75D018E52CED
:1002F70024FC5005752C008002052CD0D0D000D0EE
:1003070001D002D003D004D005D006D007D083D0C7
:0803170082D0F0D0E0D02132C9
:10040000000018F1B7F22AF4D7F409F620F718F82B
:10041000F3F17BF372F59DF69FF700008CF85CF921
:1004200015FA68FA05FB90FB0CFCF3F8B9F9B9FA78
:100430004CFBD0FB000044FCAEFC0BFD34FD83FD07
:0E044000C8FD06FE7AFCDDFC5DFDA7FDE8FDB3
:04047E00000000007A
:10031F00AE828EF005F07401800225E0D5F0FBF57A
:10032F00B0E510244EF582E5113404F583E493F51E
:02033F0090220A
:10044E004079243019120258001008034621060E76
:06005000E478FFF6D8FD84
:100341007F007E00BE040050618E058DF005F074C3
:1003510010800225E0D5F0FBF4F5807D007C00BC27
:10036100040050418CF005F07A017B008006EA2AF6
:10037100FAEB33FBD5F0F7A8807900E85202E95295
:1003810003EA4B701BED75F008A4245EFA74043582
:10039100F0FBEF2F2AF582E43BF583E493F582220B
:0E03A1000C8C0580BA0E8E07809A7582FF22A2
:10045E000000040008000C000100050009000D005A
:10046E00020006000A000E00030007000B000F003A
:10002E007904E94400601B7A0190047E78E975A09A
:10003E0003E493F2A308B8000205A0D9F4DAF2752E
:02004E00A0FF11
:1003AF00E510451160467A01E51025E0F510E511DD
:1003BF00334012F511E5829510E583951140030A3C
:1003CF0080E6C3E51113F511E51013F510C3E582AF
:1003DF009510F5F0E58395114005F58385F082C3FF
:0D03EF00E51113F511E51013F510DAE12208
:100056007800E84400600A790175A000E4F309D845
:10006600FC78E8E84403600C7904900001E4F0A30E
:04007600D8FCD9FADF
:0D00210075812C1203FCE582600302001EB5
:0403FC0075820022E4
:00000001FF
